:0420000035EF3BF08D
:08200800046ED8CF05F0E0CF13
:1020100006F00001E9CF0CF0EACF07F0E1CF08F0BD
:10202000E2CF09F0D9CF0AF0DACF0BF0F3CF12F0FC
:10203000F4CF13F0FACF14F0F5CF15F0F6CF16F079
:10204000F7CF17F000C00EF001C00FF002C010F083
:1020500003C011F0F2AA30EF10F0F2B42AEF1AF038
:102060009DA036EF10F09EB0FDEF19F09DA23CEF61
:1020700010F09EB2F1EF19F0A0AA42EF10F0A1BA51
:1020800047EF19F00EC000F00FC001F010C002F0D1
:1020900011C003F00CC0E9FF07C0EAFF078E08C0BB
:1020A000E1FF09C0E2FF0AC0D9FF0BC0DAFF12C08E
:1020B000F3FF13C0F4FF14C0FAFF15C0F5FF16C0FC
:1020C000F6FF17C0F7FF045006C0E0FF05C0D8FFB9
:1020D0001000F76AE20FF66E200EF7220900F550A5
:1020E0001200280C0106F76AF60FF66E200EF72292
:1020F0000900F5501200000302FFFFFFFFFFFFFF82
:10210000FFFFFFFFFFFFF76A160FF66E210EF722A3
:102110000900F550120000FF02FFFFFFFFFFFFFF65
:10212000FFFFFFFFFFFFF76A360FF66E210EF72263
:102130000900F550120040000B00400000000000B4
:10214000000000000000000000000000000000008F
:10215000000000000000F76A660FF66E210EF722FD
:102160000900F5501200400000004000000000008F
:10217000000000000000000000000000000000005F
:10218000000000000000F76A960FF66E210EF7229D
:102190000900F550120009024300020100803209D3
:1021A00004000001020201000524001001042402C1
:1021B0000205240600010524010001070581030B27
:1021C00000FA09040100020A0000000705020240AB
:1021D00000010705820240000100F76AEA0FF66E6F
:1021E000210EF7220900F55012000200F76AFC0FD9
:1021F000F66E210EF7220900F550120012171B206F
:10220000FFFFFFFFF76A140FF66E220EF722090098
:10221000F55012001201100102000040D8040A001B
:10222000000101020301F76A360FF66E220EF72253
:102230000900F5501200040309040C034500410095
:10224000340054005800160355005300420020008B
:10225000530065007200690061006C000C033000DF
:102260003000300030003100F76A780FF66E220E31
:10227000F7220900F55012004041424344454647C9
:10228000F76A900FF66E220EF7220900F550120041
:102290000000000000000000F76AA80FF66E220E92
:1022A000F7220900F550120048494A4B4C4D4E4F59
:1022B000F76AC00FF66E220EF7220900F5501200E1
:1022C00000001F0E04000000F76AD80FF66E220E01
:1022D000F7220900F55012005051525354555657E9
:1022E000F76AF00FF66E220EF7220900F550120081
:1022F00000151F1F1F150000F76A080FF66E230E4A
:10230000F7220900F550120058595A5B5C5D5E5F78
:10231000F76A200FF66E230EF7220900F55012001F
:102320001F11151511151F00F76A380FF66E230ED1
:10233000F7220900F5501200606162636465666708
:10234000F76A500FF66E230EF7220900F5501200BF
:102350001F11171317111F00F76A680FF66E230E6F
:10236000F7220900F550120068696A6B6C6D6E6F98
:10237000F76A800FF66E230EF7220900F55012005F
:102380000015000000150000F76A980FF66E230E86
:10239000F7220900F5501200707172737475767728
:1023A000F76AB00FF66E230EF7220900F5501200FF
:1023B0000000040E1F000000F76AC80FF66E230E1F
:1023C000F7220900F550120078797A7B7C7D7E7FB8
:1023D0006D92699468A402D06894FCD753EF19F009
:1023E000400E0401016F040E036F180E026F880E79
:1023F000006F046B040E076F580E066F0001120089
:1024000070A002D0EDDF7090689A5CEF19F06A6AF4
:10241000689262EF19F00201979196BF9781969F9B
:102420009651100803E2000E016E1AD097A10DD04C
:10243000036A9651000157DEFF0802E1000E01D049
:10244000010E016E02010CD00BD0036A96510001FF
:102450005ADEFF0802E1000E01D0010E016E0201FA
:102460000001120002019B519D03F3CF01F0F4CF54
:1024700000F09E03F35000269C519D03F350002072
:10248000026E00011200036A02019551700FE96E9D
:102490000F0E0320EA6EEF6A95C296F20001BBDFD1
:1024A000015228E002019C6B95C29BF29E6B080EC4
:1024B0009D6F0001D7DF020101C0E9FF040E022475
:1024C000EA6EEF6A9C6B95C29BF29E6B080E9D6F45
:1024D0000001C8DF02C097F201C096F2040E0201AB
:1024E0009627000E972396C2E9FF040E9725EA6E01
:1024F000EF6A00011200010E0201946F94510F085F
:1025000007E394C295F20001BEDF0201942BF6D7D7
:102510000001120002018E6B8D6B250E8C6F800EF8
:102520008B6FEA6A330EE96E020EE26E8B0EE16E7D
:10253000020E016EE6CFEEFF012EFCD7356A366A39
:102540008B6BEA6A370EE96E020EE26E8B0EE16E5D
:10255000E6CFEEFF8B6BEA6A380EE96E020EE26E92
:102560008B0EE16EE6CFEEFF080E8B6FEA6A390E36
:10257000E96E020EE26E8B0EE16EE6CFEEFF000119
:10258000886B87913B6A3A6A836B8491896B1200EE
:10259000306A2F6A02018A6B8A5101080AE3036AD2
:1025A0008A51310FE96E000E0320EA6EEF6A8A2B22
:1025B000F3D70001AFDF216A010E226E206A1200FC
:1025C000689612006A6A686A9F0E6B6E3D0E696EAD
:1025D0006E6A91DFDDDF160E706E68A602D0F0DF46
:1025E000FCD76D98FDDE030E2A6E68EF19F0698442
:1025F00068986D826EEF19F0689C74EF19F08FC2C5
:102600002BF012002B68120002018D6B2F5030103E
:1026100033E08D513F0830E32350000A000105E00C
:10262000020A0AE0010A0FE014D02EC003F02D5078
:10263000AADDE8CF8EF20DD02EC003F02D50F3DDD1
:10264000E8CF8EF206D02EC003F02D50DBDDE8CFB0
:102650008EF22D2AD8B42E2A2F50D8B430062F0649
:1026600002018D518D2B580FE96E040EEA6ED8B021
:10267000EA2A8EC2EFFFCAD72F50301004E18D51E5
:10268000400801E0206A8DC28FF20001B8DF12001D
:102690002E6A2D6A236A04011B51010A000107E01A
:1026A000030A0BE0010A0DE0220A22E03AD0306A68
:1026B000120E2F6E030E236E36D0306A430E2F6E2D
:1026C00032D0020E236E036A04011A51260FE96EFE
:1026D000000E0320EA6E2E6AEFCF2DF02EC003F01D
:1026E0002D500001A0DD036A2F6E03C030F01BD017
:1026F000036A04011A51000179DD036A2D6E03C0DB
:102700002EF02D3C02D02E520AE02EC003F02D50A8
:102710003ADD036A2F6E03C030F005D002D072DFBD
:1027200011D070DF0FD004011F5308E1305203E1D4
:102730002F501E5D03E2306A1EC42FF0010E206E82
:10274000000162DFF0EF14F002018C5306E1040E89
:102750002A6E0001D0DEE8D00201050E2A6E040EBA
:102760008F6F980E8E6F010E8D6F8D510F08D8A050
:10277000DBD08DC295F2000186DE0201906B036A08
:102780008D510001C0DCFF0865E0040E0201906F6E
:10279000D8908D35036A0001DEDC0900F5CF03F027
:1027A0000201916F03C092F29C6B8DC29BF29E6BF3
:1027B000080E9D6F000156DE01C094F2010E020169
:1027C0000124016E000E0220036E01C0E9FF040E19
:1027D0000324EA6E91C2EFFF9C6B8DC29BF29E6B4D
:1027E000080E9D6F00013EDE01C094F2020E020150
:1027F0000124016E000E0220036E01C0E9FF040EE9
:102800000324EA6E8FC2ECFFED528EC2EFFFD89028
:102810008D35036A00019FDC0900F5CF03F002014A
:102820008E2703508F23880E936F92B1938192B3BA
:1028300093839C6B8DC29BF29E6B080E9D6F000173
:1028400011DE020101C0E9FF040E0224EA6E93C208
:10285000EFFF0001036A02018D51000144DCFF0813
:1028600047E0020190839C6B8DC29BF29E6B080E29
:102870009D6F0001F7DD02C095F201C094F2040ED5
:1028800002019427000E9523020E9425016E000E7E
:102890009521036E01C0E9FF040E0324EA6E8FC286
:1028A000ECFFED528EC2EFFFD8908D35036A000128
:1028B0003ADC0900F5CF03F002018E2703508F2385
:1028C0009C6B8DC29BF29E6B080E9D6F0001CADD52
:1028D00002C095F201C094F2040E02019427000E8A
:1028E000952394C2E9FF040E9525EA6E400EEF6E23
:1028F00002019051060802E10E0E906F036A8D519D
:10290000000173EC10F0010803E00201908900015E
:10291000036A02018D51700FE96E0F0E0320EA6EFB
:1029200090C2EFFF8D2B21D70001E9EF14F00401D5
:102930001951000A00010DE0010A15E0020A20E029
:10294000060A2AE0030A31E00E0A31E0010A37E004
:1029500046D022C058F40401596B020E02018F6F59
:1029600000014DDE3DD004011A2D07D0010E2216C4
:1029700002018F6B000143DE02D0000143DE30D044
:1029800004011A2D06D0228202018F6B000137DE6E
:1029900002D0000137DE24D0020E206E1AC42CF0C3
:1029A00002018F6B00012BDE1BD072D619D021C023
:1029B00058F4010E02018F6F000121DE11D00401D5
:1029C0001A5101080AE31AC421F01AC48CF200015A
:1029D000BBD602018F6B000112DE000101D012DEB6
:1029E00086EF16F021C08CF204011951000A000193
:1029F00005E00A0A0CE0010A2CE040D00401586B03
:102A0000596B020E02018F6F0001F9DD38D002010F
:102A10008C531CE0010E8C5D036A0001EDEC10F09C
:102A2000016E04011C5DD8A002D002010FD0036A20
:102A30001C51310FE96E000E0320EA6EEFCF58F4FF
:102A4000010E02018F6F0001DADD02D00001DADD34
:102A500016D002018C530FE0036A04011C51310FA0
:102A6000E96E000E0320EA6E1AC4EFFF02018F6BBD
:102A70000001C5DD02D00001C5DD01D0C3DD86EF58
:102A800016F002018D918CBF8D818C9F8DA119D084
:102A90009C6B8CC29BF29E6B080E9D6F0001E2DC6A
:102AA00002C08FF201C08EF2040E02018E27000ECA
:102AB0008F238EC2E9FF040E8F25EA6E880EEF6E1B
:102AC0000FD09C6B8CC29BF29E6B080E9D6F000119
:102AD000C9DC020101C0E9FF040E0224EA6EEF6ABC
:102AE0000001F3EF15F002018D918CBF8D818C9F59
:102AF0008DA119D09C6B8CC29BF29E6B080E9D6FB2
:102B00000001B0DC02C08FF201C08EF2040E02019F
:102B10008E27000E8F238EC2E9FF040E8F25EA6EEA
:102B2000840EEF6E10D09C6B8CC29BF29E6B080ED5
:102B30009D6F000197DC020101C0E9FF040E022431
:102B4000EA6E840EEF6E0001FBEF15F002018D912D
:102B50008CBF8D818C9F8DA119D09C6B8CC29BF2F8
:102B60009E6B080E9D6F00017DDC02C090F201C0DB
:102B70008FF2040E02018F27000E90238FC2E9FF0F
:102B8000040E9025EA6EEFCF8EF210D09C6B8CC2B3
:102B90009BF29E6B080E9D6F000164DC020101C078
:102BA000E9FF040E0224EA6EEFCF8EF28EAF02D060
:102BB0008EB502D0000E01D0010E016E000107EFAC
:102BC00016F01CC496F227DC01522DE004011951C5
:102BD000010A000105E0020A0BE0030A11E022D01D
:102BE0001CC48CF24ED702018F6B000108DD1BD094
:102BF0001CC48CF278D702018F6B000100DD13D06A
:102C00000401586B596B1CC48CF200019FD7015210
:102C100003E0010E0401586F020E02018F6F0001E4
:102C2000EEDC01D0EFDC86EF16F0FE0E2B6E12000C
:102C300004011C2D01D002D01C534EE11951000A91
:102C400000010BE0010A0DE0210A1CE0010A1FE06F
:102C5000030A30E0010A35E03DD0010E896FE5DF5F
:102C60003AD0040EEA6E580EE96EE26A3C0EE16E4E
:102C7000080E016EE6CFEEFF012EFCD71EC48FF2C8
:102C8000BEDC29D0020E896F8781CFDF24D0040EED
:102C9000EA6E580EE96EE26A330EE16E070E016EBF
:102CA000E6CFEEFF012EFCD7070E02018F6F000169
:102CB000A6DC11D01AC488F002018F6B00019FDCE2
:102CC0000AD01AC43BF01BC43AF002018F6B00011A
:102CD00096DC01D097DC0401000186EF16F0206A33
:102CE000040118517F0B000A000107E0010A07E008
:102CF000030A07E0230A07E008D019D607D072D6E6
:102D000005D05FD703D094D701D07CDCE7EF18F073
:102D100002019C6B8DC29BF29E6B080E9D6F0001A1
:102D200032EC12F0020101C0E9FF040E0224EA6E47
:102D3000EFCF8FF28E51020806E18FAD02D08E6B7D
:102D400002D0010E8E6F8E5103081CE1840E8F6F2E
:102D50009C6B8DC29BF29E6B080E9D6F000132EC46
:102D600012F002C093F201C092F2040E0201922707
:102D7000000E932392C2E9FF040E9325EA6E840E9F
:102D8000EF6E07D08E2D03D0C80E8F6F02D0880E45
:102D90008F6FD8908D35036A0001ABEC10F00900FD
:102DA000F5CF03F00201906F03C091F29C6B8DC2CE
:102DB0009BF29E6B080E9D6F000132EC12F001C079
:102DC00092F2010E02010124016E000E0220036E38
:102DD00001C0E9FF040E0324EA6E90C2EFFF91B137
:102DE0008F8191B38F839C6B8DC29BF29E6B080E7B
:102DF0009D6F000132EC12F0020101C0E9FF040EE8
:102E00000224EA6E8FC2EFFF00011200036A020182
:102E10009A51700FE96E0F0E0320EA6EEF521BE01D
:102E20009C6B9AC29BF29E6B080E9D6F000132EC68
:102E300012F002C09CF201C09BF2040E02019B271B
:102E4000000E9C239BC2E9FF040E9C25EA6EEFCF87
:102E50009DF29DAF02D0000E01D0010E016E000167
:102E6000120095C29AF2D2DF0152D8B485D0020185
:102E70009C6B95C29BF29E6B080E9D6F000132EC1D
:102E800012F002C09BF201C09AF2040E02019A27CE
:102E9000000E9B23010E9A25016E000E9B21036EEE
:102EA00001C0E9FF040E0324EA6E96C2EFFF9851B9
:102EB000020820E19C6B95C29BF29E6B080E9D6FF1
:102EC000000132EC12F002C09BF201C09AF2040E33
:102ED00002019A27000E9B239AC2E9FF040E9B254C
:102EE000EA6EEFCF99F299AD02D0986B02D0010E45
:102EF000986F1AD09851040817E19C6B95C29BF209
:102F00009E6B080E9D6F000132EC12F0020101C0B1
:102F1000E9FF040E0224EA6EEFCF99F299AD03D0D7
:102F2000010E986F01D0986B982D03D0C80E996F41
:102F300002D0880E996F97B1998197B399839C6B52
:102F400095C29BF29E6B080E9D6F000132EC12F051
:102F500002C09BF201C09AF2040E02019A27000EF1
:102F60009B239AC2E9FF040E9B25EA6E99C2EFFFEC
:102F7000010E016E04D00001000E016E020100017D
:102F800012008951010A03E0030A15E028D0EA6A19
:102F90003C0EE96E040EE26E180EE16E080E016E34
:102FA000E6CFEEFF012EFCD702018F6B0001FFEC94
:102FB00012F0896B15D0EA6A330EE96E040EE26EE8
:102FC000180EE16E070E016EE6CFEEFF012EFCD764
:102FD000896B02018F6B0001FFEC12F001D0896B4D
:102FE0002FEF18F002019C6B8DC29BF29E6B080EB6
:102FF0009D6F000132EC12F002C08FF201C08EF220
:10300000010E02010124016E000E0220036E01C0B8
:10301000E9FF040E0324EA6E036AEFCF01F003C058
:1030200002F0000123EF18F08491020E02018D6F6F
:103030008E6F00016DDE12008481866B020E02012C
:103040008D6F0001CFD701C085F0855301E1ECDF22
:1030500036EF18F002018C5304E1000192D706D03C
:1030600002018C51020803E10001E6D702010001D0
:1030700012008DC26EFF02018D5303E0040E2A6E12
:1030800002D0020E2A6E00014BEF18F0216A206A6E
:103090002CC08DF2EED7C1EF18F08DC29AF2B6DED9
:1030A000015247E002019C6B8DC29BF29E6B080EA1
:1030B0009D6F000132EC12F002C096F201C095F251
:1030C000040E02019527000E9623020E9525016E2F
:1030D000000E9621036E01C0E9FF040E0324EA6E80
:1030E000ECCF94F2ED52EFCF93F294C2EAFF93C289
:1030F000E9FF8FC2E2FF8EC2E1FF91C202F090C2EF
:1031000001F0015202E0022A02D0025206E0E6CFAC
:10311000EEFF012EFCD7022EFAD78DC295F291C296
:1031200097F290C296F292C298F200019ADE015094
:1031300002D0000E016E1200835310E0020E020155
:103140008D6F8F6B440E8E6F916B83C090F2020E69
:10315000926F0001A2DF015201E0836B1200ECDFED
:10316000C8EF18F002018C530EE1202C05D00001AD
:1031700004EC13F006D002012050020803E1000124
:1031800085D7020106D08C51020803E10001E7D780
:10319000020100011200243002018A6F8A338A334F
:1031A0001F0E8A1724524EE1040100513C0B02010C
:1031B0008B6F430E0401001702018B51340825E187
:1031C00004010451800B01E0046B000188D56D9867
:1031D0002B3C07D002018D6B030E8E6F000198DD32
:1031E00012D002018D6B020E8E6F000191DD2B500B
:1031F000FE0809E00201956B976B2BC096F2040E56
:10320000986F00012EDE1CD002018B51040819E1D9
:103210008C6B00011FDF02018D6B020E8E6F0001AF
:1032200077DD2B50FE080CE02B3C01D009D00201C9
:10323000956B976B2BC096F2010E986F000111DE13
:10324000020122D02450040812E12B688C6B00018B
:1032500089DF2B3C01D009D00201956B976B2BC005
:1032600096F2020E986F0001FCDD0DD0020124B42D
:1032700006D08AC28CF20001EDDE05D002018AC2BE
:103280008CF200016FDF0201000180EF19F0A19ABA
:103290002A5201E13ED068523CE068A404D069A4FF
:1032A00002D0E8EF11F06DA201D033D068AA04D0AB
:1032B00069AA02D000EF12F068A204D069A202D07D
:1032C00007EF12F068A004D069A002D0E2EF12F07C
:1032D00068A804D069A802D0F7EF12F068AC04D057
:1032E00069AC02D0FCEF12F00201896B68A60AD02B
:1032F00069A608D06CCF24F00001E0EC12F04BD7A7
:1033000002D0020105D002018951892B0308EEE2A7
:10331000000142EF10F0566572322E3368000C0047
:103320005761746368646F672074696D656F757445
:103330000A0D000042726F776E6F757420726573AC
:10334000746172740A0D0000526573746172743A8C
:103350002025640A0D000A4D4F4445204142534F39
:103360004C555445204F4E2020000A446566617537
:103370006C7420636F6E6669672100000A20205517
:1033800053422044495341424C4544000C417A3A4F
:1033900025332E306C69DF2052756E3A25332E307E
:1033A0006C69DF000C417A25332E306C69DF2028F0
:1033B000256C752900000A456C3A25332E306C695E
:1033C000DF2052756E3A25332E306C69DF000A45D6
:1033D0006C25332E306C69DF2028256C75290000A0
:1033E0000A0087B504D093968A86878503D0939682
:1033F0008A9687959E9242EF10F00101EDA501D0CB
:1034000025D08D2F23D00A0E8D6F902B98BD04D020
:10341000988D959E8C8E03D0989D959E8C9E84A1B0
:1034200015D091A913D002015A510108D8A002D099
:1034300001010CD001019651630806E2640E966FFB
:10344000919993968A8602D0020E96279E9000014B
:1034500042EF10F001018C2FBED0090E8C6FEF2BC4
:10346000EC2BEC511408D8A4B2D0EC6B02015A51E9
:1034700001081CE2010184B302D0020117D002014D
:103480003951375D03E13A51385D08E038C23AF20C
:1034900037C239F20101886B08D002010101882B83
:1034A0008851030802E2ED87886B02015B531AE042
:1034B000010184B502D0020115D002013B51565DD5
:1034C00003E13C51575D08E057C23CF256C23BF263
:1034D0000101896B07D002010101892B8951030881
:1034E00001E2896B010184A738D002015A51040816
:1034F00019E13E51385D0AE303E13D51375D06E3D2
:1035000001018A5301E08A0708D0020101018A51B2
:10351000030802E2ED8B01D08A2B38C23EF237C29B
:103520003DF202015A51020819E138513E5D0AE3A9
:1035300003E137513D5D06E301018A5301E08A074B
:1035400008D0020101018A51030802E2ED8B01D08B
:103550008A2B38C23EF237C23DF202015A530EE0C6
:10356000025302E103530AE03151D8B43207312F3C
:1035700005D0325303E10101ED8702015B530BE0FB
:10358000045302E1055307E03351D8B43407332F15
:1035900002D0345300E1415309E0412F07D000012C
:1035A00087890101919300C292F10201010184AB6C
:1035B0000ED0000187B302D0010109D0010E010134
:1035C00085278551F00803E200018793010100017E
:1035D000878D878F0101F294000142EF10F00C52A9
:1035E00043492D5553422062792045413454580AAD
:1035F00000002573204669726D3A256425642564B0
:103600000A000A20202020000C4E6F20707377647F
:1036100000000A0D417A204D696E3A256C7509004B
:10362000417A204D61783A256C750A0D0000417A87
:1036300020416E673A256C750900417A204F666615
:103640003A256C750A0D0000456C204D696E3A25CF
:103650006C750900456C204D61783A256C750A0D32
:103660000000456C20416E673A256C750900456C79
:10367000204F66663A256C750A0D0000415A3D25BB
:1036800030332E306C6920454C3D2530332E306C64
:10369000690D0A002B4144432D423A20256C7520C8
:1036A000256C750A0D00415A3D2530332E306C755E
:1036B0000D0A0000454C3D2530332E306C750D0A47
:1036C00000005772697465203C2532583A253258FB
:1036D0003E0A0D3F3E000A0D3F3E0000413A256480
:1036E00020503A256C750A0D00000A4552524F527F
:1036F0003A2025640000010E02017025736FF2CF9D
:1037000074F2F29E73C2A9FFA69CA69EA680A85042
:1037100074BFF28E726B716F71C272F2716BF2CF05
:1037200073F2F29E70C2A9FFA69CA69EA680A85026
:1037300073BFF28E7127000E722371C201F072C244
:1037400002F0000112000201726B716B706B70511C
:103750007D0810E3F2CF73F2F29E70C2A9FFA69C1F
:10376000A69EA680A85073BFF28E7127000E72230A
:10377000702BEDD771C201F072C202F0000112008D
:10378000010198997E0E0201706F0001B4DF02C042
:103790006DF201C06CF2D7DF02C06FF201C06EF2B1
:1037A00002016E516C5D09E16F516D5D06E1010131
:1037B0009889010E016E04D00201000E016E010114
:1037C000000144EF1DF002016C6B6C517D0817E3A2
:1037D000F250006EF29E6CC2A9FFA86AA69CA69E3B
:1037E000A6840F01550EA76EAA0EA76EA682A6B2DA
:1037F000FED7A6940050F21202016C2BE6D700010E
:1038000041EF1DF0F250006EF29E6EC2A9FF6FC232
:10381000A8FFA69CA69EA6840F01550EA76EAA0E11
:10382000A76EA682A6B2FED7A6940050F21270C26E
:103830006FF20201706B010E6E25716FF250006E17
:10384000F29E71C2A9FF6FC2A8FFA69CA69EA68485
:103850000F01550EA76EAA0EA76EA682A6B2FED7BE
:10386000A6940050F212000112006DDF02C06DF24A
:1038700001C06CF27E0E02016E6F6DC270F26CC2FE
:103880006FF20001BFDF120002016E6BF1C170F236
:10389000F0C16FF20001B6DF020E02016E6FF3C1DC
:1038A00070F2F2C16FF20001ADDF040E02016E6F23
:1038B000F5C170F2F4C16FF20001A4DF060E02013F
:1038C0006E6FF7C170F2F6C16FF200019BDF080E58
:1038D00002016E6FF9C170F2F8C16FF2000192DF60
:1038E0000A0E02016E6FFBC170F2FAC16FF20001A5
:1038F00089DF0C0E02016E6FFDC170F2FCC16FF228
:10390000000180DF0E0E02016E6FFFC170F2FEC17A
:103910006FF2000177DFF250006EF29E100EA96E7A
:1039200058C2A8FFA69CA69EA6840F01550EA76E9E
:10393000AA0EA76EA682A6B2FED7A6940050F212D7
:10394000F2CF00F0F29E120EA96E59C2A8FFA69CFB
:10395000A69EA684550EA76EAA0EA76EA682A6B234
:10396000FED7A6940050F212140E02016E6F03C22D
:1039700070F202C26FF2000145DF160E02016E6F97
:1039800005C270F204C26FF200013CDFF250006E1B
:10399000F29E180EA96E00C2A8FFA69CA69EA68441
:1039A0000F01550EA76EAA0EA76EA682A6B2FED76D
:1039B000A6940050F212F2CF00F0F29E1A0EA96EF9
:1039C00001C2A8FFA69CA69EA684550EA76EAA0EAD
:1039D000A76EA682A6B2FED7A6940050F2121C0EC5
:1039E00002016E6F36C270F235C26FF200010ADF5B
:1039F000F250006EF29E1F0EA96E83C1A8FFA69C16
:103A0000A69EA6840F01550EA76EAA0EA76EA682CB
:103A1000A6B2FED7A6940050F212000126DF1200D3
:103A20000101F16BF06B030EF36FF269010EF56F9C
:103A3000680EF46FF76BF66B0201036B026B01010A
:103A4000F96BF86B030EFB6FFA69FD6BB40EFC6F3C
:103A5000FF6BFE6B0201056B046B050E586F596F0F
:103A6000030E006F016F010E366FF40E356F01010A
:103A70008391838383958399838B839D839F0001A7
:103A8000A2D602DF12007CD6015202E1C9DF2CD19E
:103A90000201706B00012FDE02C0F1F101C0F0F1F4
:103AA000020E0201706F000126DE02C0F3F101C0B8
:103AB000F2F1040E0201706F00011DDE02C0F5F18B
:103AC00001C0F4F1060E0201706F000114DE02C0A5
:103AD000F7F101C0F6F1080E0201706F00010BDE74
:103AE00002C0F9F101C0F8F10A0E0201706F000185
:103AF00002DE02C0FBF101C0FAF10C0E0201706F90
:103B00000001F9DD02C0FDF101C0FCF10E0E020161
:103B1000706F0001F0DD02C0FFF101C0FEF1F2CFD5
:103B20006CF2F29E100EA96EA69CA69EA680A850CE
:103B300002016CBFF28E586FF2CF6CF2F29E120E41
:103B4000A96EA69CA69EA680A8506CBFF28E596F47
:103B5000140E706F0001CFDD02C003F201C002F24B
:103B6000160E0201706F0001C6DD02C005F201C031
:103B700004F2F2CF6CF2F29E180EA96EA69CA69EDD
:103B8000A680A85002016CBFF28E006FF2CF6CF2DB
:103B9000F29E1A0EA96EA69CA69EA680A8506CBF87
:103BA000F28E016F1C0E706F0001A5DD02C036F2AF
:103BB00001C035F202013651120809E2FF0A03E1A1
:103BC0003551880804E2010E366FF40E356FF2CFDE
:103BD0006CF2F29E1F0EA96EA69CA69EA680A8500F
:103BE0006CBFF28E0101836FF2CF6CF2F29E200E59
:103BF000A96EA69CA69EA680A85002016CBFF28E5C
:103C00000101846FF2CF6CF2F29E210EA96EA69C88
:103C1000A69EA680A85002016CBFF28E0101866F9D
:103C2000F2CF6CF2F29E220EA96EA69CA69EA680F2
:103C3000A85002016CBFF28E0101876F02016B6B0D
:103C40006B51180818E3036A6B51070FE96E020EF7
:103C50000320EA6E280E6B256E6FF2CF6FF2F29E94
:103C60006EC2A9FFA69CA69EA680A8506FBFF28E2A
:103C7000EF6E6B2BE5D76B6B6B51070818E3036A8C
:103C80006B51290FE96E020E0320EA6E410E6B257F
:103C90006E6FF2CF6FF2F29E6EC2A9FFA69CA69E37
:103CA000A680A8506FBFF28EEF6E6B2BE5D76B6BC3
:103CB0006B51080818E3036A6B51200FE96E020E7E
:103CC0000320EA6E490E6B256E6FF2CF6FF2F29E03
:103CD0006EC2A9FFA69CA69EA680A8506FBFF28EBA
:103CE000EF6E6B2BE5D700011200FF0E926E936E04
:103CF000000E946E0B0E956E849EFF0E966EC15054
:103D0000C00B0F09C16EC290BEDEC150C00B0C09C2
:103D1000C16EC050C00B0709C06EC08EC280090EB4
:103D200001018C6FD76AD66AD190C70ED56EF28A20
:103D30009D809D8200015FEF3DF0020EEA6E720EE3
:103D4000E96EEF5010E00F0E016EBF0E006E040022
:103D5000002EFDD7012EF9D78F0E006E002EFED754
:103D60000400EF2EF0D71200020175B102D08A983C
:103D700001D08A88939875B302D08A9A01D08A8A32
:103D8000939A75B502D08A9C01D08A8C939C75B7A2
:103D900002D08A9E01D08A8E939E00008A809390E2
:103DA0000400070E006E002EFED700008A9093904C
:103DB000000112000201766B9388000E81B8010E9B
:103DC0007613938A000E81BA010E006ED8900036E9
:103DD00000507613938C000E81BC010E006E0036ED
:103DE0000036FC0E001600507613938E000E81BE36
:103DF000010E006E003600360036F80E0016005038
:103E0000761376C201F0000112009388938A938C96
:103E1000938E8A84939400008A8093900000CADF76
:103E200001C075F28A90939000008A8093900400FC
:103E3000030E006E002EFED70000BCDF01C074F23E
:103E40008A9093909398939A939C939E02017539CC
:103E5000006EF00E001600507411016E000137EF75
:103E60001FF09390939293948A929392CED701C02D
:103E700074F2020101AE02D00001F8D7725302E1E0
:103E80008A9201D08A82939200008A9493940000CF
:103E90008A9093907339746F0F0E741774C275F211
:103EA000000162DF020173510F0B746F756F000127
:103EB0005BDF12009398939A939C939E93909392B6
:103EC00093948A9293928A9493948A9093900F0EEB
:103ED0000201726F000131DF010E0201686F68514B
:103EE00003080CE3030E756F00013EDF050E0201AF
:103EF000726F000122DF0201682BF1D7020E756F8D
:103F0000000132DF050E0201726F000116DF0201AF
:103F1000686B685103080EE3036A6851000169EC9D
:103F200010F00201696F726B736F00019ADF02017A
:103F3000682BEFD7000165EF3DF00201696B695115
:103F40000708D8A0A9D0010E685DF80FD8B095D0A9
:103F5000080F00014EEF20F0036A020169510001D1
:103F600034EC11F0E8CF6AF2036A020169510001F2
:103F700040EC11F0E8CF6BF202017FD0036A02013E
:103F8000695100014CEC11F0E8CF6AF2036A0201BA
:103F90006951000158EC11F0E8CF6BF202016DD0CD
:103FA000036A02016951000164EC11F0E8CF6AF282
:103FB000036A02016951000170EC11F0E8CF6BF265
:103FC00002015BD0036A0201695100017CEC11F02F
:103FD000E8CF6AF2036A02016951000188EC11F02E
:103FE000E8CF6BF2020149D0036A02016951000176
:103FF00094EC11F0E8CF6AF2036A02016951000102
:10400000A0EC11F0E8CF6BF2020137D0036A020195
:1040100069510001ACEC11F0E8CF6AF2036A0201C9
:1040200069510001B8EC11F0E8CF6BF2020125D024
:10403000036A020169510001C4EC11F0E8CF6AF291
:10404000036A020169510001D0EC11F0E8CF6BF274
:10405000020113D0036A020169510001DCEC11F086
:10406000E8CF6AF2036A02016951000158EC11F0CD
:10407000E8CF6BF2020101D00201726B6AC273F2E7
:104080000001EFDE010E0201726F6BC273F20001DC
:10409000E8DE0201692B53D700011200E824F76A19
:1040A000F736B70FF66E400EF7220A00F550FA6E9B
:1040B0000800F550F96E583F7C3FA03FC43FE83FF1
:1040C0000C403040544002016F2D01D003D0400E0F
:1040D000706F01D0706B010E6E5D7027705180099A
:1040E000716F726B736F0001BCDE120002016D51C3
:1040F000070A000107E00B0A0CE0060A16E0020AB4
:104100001CE022D0010E02016E6F6F6F0001DBDF39
:1041100022D00201726B010E736F0001A2DE020E4B
:104120000201726F000109DE16D0010E02016E6FEE
:10413000020E6F6F0001C7DF0ED00201726B100E0E
:10414000736F00018EDE07D0010E0201726F6DC227
:1041500073F2000186DE12000900F5520CE0F6CF82
:104160006BF2F7CF6CF2F5CF6DF2C0DF6BC2F6FFEA
:104170006CC2F7FFF1D7120061C2EAFF60C2E9FF2B
:10418000020179C2EFFFE92AD8B4EA2AEF6A602B6C
:10419000D8B4612B000112000900F5520CE0F6CFF3
:1041A0006EF2F7CF6FF2F5CF79F2E6DF6EC2F6FF6F
:1041B0006FC2F7FFF1D712000900F6CF71F2F7CF07
:1041C00072F2F5CF79F2D8DF71C2F6FF72C2F7FF53
:1041D0000201702F01D002D00001EED700011200C1
:1041E00002017551016A745D03E274C200F00CD0E3
:1041F000006A080E766F743700367551005CD8B0CF
:10420000006E0136762FF7D700011200200E020152
:104210006FA9300E706F6EC200F06EAF08D0001E36
:10422000002A00C06EF22D0E706F6F8F6F810150EB
:104230006EC274F2640E756F0001D2DF00C06EF2C0
:10424000300E01240201716F6EC274F20A0E756F96
:104250000001C6DF300E00240201736F300E01240E
:10426000726F70C200F0300E715D04E06F836FBF3B
:104270006F8512D070C271F2200E706F300E725DB9
:1042800004E06F816FBF6F8307D0D8A46F8104E112
:1042900071C272F2200E716F6FB505D06FB307D087
:1042A0006FB109D00CD070C279F2000165DF71C224
:1042B00079F2000161DF72C279F200015DDF73C241
:1042C00079F2000159DF1200EF520FE0EACF6CF2F1
:1042D000E9CF6BF2EFCF6DF209DF6CC2EAFF6BC280
:1042E000E9FFE92AD8B4EA2AEFD71200EACF73F23D
:1042F000E9CF72F202016CAF08D0728F72A9722BF3
:104300006B1F6C1F6B2BD8B46C2B6C39F0096E6F64
:104310006E27E20F6F6F320F716F6C510F0B6F27AB
:104320006F277127E90F706F702770276B390F0B9C
:104330007027712770377137711F71376B510F0BF1
:1043400071276E37070E6D6F0A0E70077127FDE338
:104350006F077027FDE36E076F27FDE36D076E277C
:10436000FDE3020EEA6E6D0EE96E070E7215729D88
:10437000E906721507E172B9E92A72B903D0200E75
:10438000006E1CD0E926710EE95CD8B4728DEF5036
:10439000006E08E172BD06D072B91DD072B702D0AE
:1043A000200E0BD072AF06D02D0E006EED50729D18
:1043B000729F04D072877299300E0026EACF6CF299
:1043C000E9CF6BF200C079F20001D6DE6CC2EAFFE1
:1043D0006BC2E9FF0201EE5072ADD5D700011200A9
:1043E000EACF78F2E9CF77F202017139F009736F01
:1043F0007327E20F746F320F766F71510F0B7427B2
:1044000074277627E90F756F7527752770390F0B9D
:104410007527762775377637761F763770510F0BED
:1044200076277337070E726F0A0E75077627FDE33E
:1044300074077527FDE373077427FDE3720773277D
:10444000FDE3020EEA6E720EE96E070E7715779D98
:10445000E926760EE95CD8B4778DEF50006E08E15E
:1044600077BD06D077B915D077B702D0200E03D02C
:1044700077877799300E0026EACF71F2E9CF70F294
:1044800000C079F2000178DE71C2EAFF70C2E9FF74
:104490000201EE5077ADDDD700011200016A026A19
:1044A000006A036A0201725102E1715118E0100EB4
:1044B000736FD8906F377037003603367251035CD4
:1044C00002E17151005C07E37151005ED8A0030660
:1044D0007251035ED88001360236732FEAD700018D
:1044E000120087A70BD0010198B302D0000106D0BB
:1044F0000C0E02016D6F0001F9DD90D102015A51DD
:10450000020A000105E0060A07E0050A09E00CD0EE
:104510007F0E02015C6F0BD07E0E02015C6F07D034
:104520002D0E02015C6F03D03A0E02015C6F000198
:1045300087B904D0010191AF39D00001010E020109
:10454000616F9B0E606F8C0EF66E330EF76E040E6D
:10455000706F000131DE030EE96E45C26CF244C299
:104560006BF2C4DE960EF66E330EF76E060E020187
:10457000706F000121DE030EE96E4DC26CF24CC279
:104580006BF2B4DEDF0E0201796F0001F5DD87B951
:104590000BD0500E0101A46F720EA56F650EA66FB1
:1045A000230EA76FAB6F00012AD00101010E02019B
:1045B000616F9B0E606FA40EF66E330EF76E030EE6
:1045C000706F0001F9DD030EE96E45C26CF244C262
:1045D0006BF28CDEAD0EF66E330EF76E030E02013B
:1045E000706F0001E9DD100EE96E38C271F237C25A
:1045F00070F2F6DE290E0201796F0001BDDD5CC2AA
:104600009EF1010191AB02D0030E9C6F010EEA6E88
:104610009B0EE96E000158DE0101EDA186D083B941
:1046200084D002015B51040A000103E0060A05E0A0
:1046300008D0010E02015C6F07D0060E02015C6F0C
:1046400003D03A0E02015C6F000187BB04D0010168
:1046500091AF39D00001010E0201616F9B0E606FB6
:10466000B60EF66E330EF76E040E706F0001A4DD09
:10467000030EE96E49C26CF248C26BF237DEC00E1F
:10468000F66E330EF76E060E0201706F000194DDB8
:10469000030EE96E53C26CF252C26BF227DEDF0EDC
:1046A0000201796F000168DD87BB0BD0500E01015C
:1046B000A46F720EA56F650EA66F230EA76FAB6F6A
:1046C00000012AD00101010E0201616F9B0E606F93
:1046D000CE0EF66E330EF76E030E706F00016CDDBA
:1046E000030EE96E47C26CF246C26BF2FFDDD70ED5
:1046F000F66E330EF76E030E0201706F00015CDD83
:10470000100EE96E57C271F256C270F269DE290EC0
:104710000201796F000130DD5CC29EF1010EEA6E8C
:104720009B0EE96ED1DD7AD00101E00EF66E330EFC
:10473000F76E000111DD010191BD1AD0020137357C
:104740006B6F38356C6F6B376C376B376C376B371B
:104750006C37F00E6B176CC270F26BC26FF2030E07
:10476000726F716900019ADE01C05EF23CD00101F6
:10477000F1510201385D35E308E137510101F05D87
:10478000D8A002D002012DD002010101F051020196
:10479000375D6B6F0101F151020138596C6F6B3756
:1047A0006C376B376C376B376C376B376C37F00E99
:1047B0006B170101F051F25D006EF151F359036E78
:1047C00000C06DF202016E6F6CC270F26BC26FF2CC
:1047D000726F00C071F2000161DE01C05EF203D0B1
:1047E00002015E6B000102015E510F0802E20F0E32
:1047F0005E6F5C6B5C510F0810E35C515E5D06E11F
:10480000020E6D6F000172DC05D00201050E6D6FA6
:1048100000016CDC02015C2BEDD70001120036C2F6
:104820006BF202016B2B6B07D8B406D072690001E2
:104830009DEC1EF00201F7D735C272F200019DEC2B
:104840001EF01200879902015A6B83AC06D0959C2A
:104850008C9C000146DEE3DF020183AA05D0959A15
:104860008C9A5A6B0001DBDF0101918102015A6BC6
:10487000000137DE3F0E946E8B9C010184A102D0B3
:10488000966B91898A6B886B03C232F202C231F255
:1048900000011200879B3F0E946E8B9E95988C981A
:1048A00002015B6B05C234F204C233F20001120054
:1048B0000101ED850201686B959E8C9E95948C9408
:1048C000959C8C9C959A8C9A3F0E946E8B9E959895
:1048D0008C98946E8B9C958683B601D0682B9594AA
:1048E0008C84958683A601D0682B95948C94959A98
:1048F0008C8A959C8C8C958683B601D0682B959478
:104900008C84958683A601D0682B95948C94959C75
:104910008C9C959A8C9A3F0E946E8B8E95988C8871
:10492000946E8B8C958683B601D0682B95948C847D
:10493000958683A601D0682B95948C94959C8C9C2D
:10494000959A8C9A3F0E946E8B9E95988C98946E47
:104950008B8C958683B601D0682B95948C84958634
:1049600083A601D0682B95948C943F0E946E8B8E09
:1049700095988C88946E8B9C958683A603D00101B4
:10498000ED8102D00101ED9195948C943F0E946ECF
:104990008B8E95988C88946E8B8C959C8C8C959A2C
:1049A0008C8A958683A602D0ED8301D0ED93959CE9
:1049B0008C9C959A8C9A3F0E946E8B9E95988C98B1
:1049C000946E8B9C0201685303E00101989F02D012
:1049D0000101988F95948C84ED9500015CEF3EF079
:1049E00002017791F2BE7781F29E000183513E0869
:1049F00002E23E0E836F8351832B036A440FE96EFC
:104A0000000E0320EA6E76C2EFFFF29E020177B13C
:104A1000F28E00010FEF25F075C276F2E1D7196A28
:104A2000F2BE198EF29E020E02019A6F000106EC90
:104A300017F019BEF28E015208E0196AF2BE198E03
:104A4000F29E9CEC18F019BEF28E2EEF25F08351E9
:104A50003E0801E2FCD774C275F2DED739EF25F0CB
:104A6000EF520FE0EACF73F2E9CF72F2EFCF74F2B8
:104A7000EED773C2EAFF72C2E9FFE92AD8B4EA2A84
:104A8000EFD748EF25F071C2EAFF70C2E9FFE8D71F
:104A90000A0E0201726F00019DEC1EF0120002016D
:104AA000716BE00E706F0001EEDF0201716B8A0E18
:104AB000706F0001E8DFDE0EF66E350EF76EACECBF
:104AC00020F0010E0201616F9B0E606F0D0E796F79
:104AD0000001BCEC20F0010E0201716F9B0E706FA3
:104AE0000001D1DF000E010198BF010E02016B6FC2
:104AF000000E0101EDB1010E02016C6F000E01010B
:104B0000EDB3010E02016D6F010E616F9B0E606FC0
:104B1000160EF66E330EF76E0001CCEC20F0F40E9C
:104B2000F66E350EF76E060E0201706F0001DCECBA
:104B300020F06BC26EF2180E02016F6F000106ECDE
:104B400021F06CC26EF2180E02016F6F000106ECCC
:104B500021F06DC26EF2180E02016F6F000106ECBB
:104B600021F00A0E0201796F0001BCEC20F0010E69
:104B70000201716F9B0E706F000185DF010EEA6EFE
:104B80009B0EE96E64EC21F00201716BE00E706F18
:104B9000000179DF12006D6A696A080E6F6E945029
:104BA00030090201946E2A6A196AF2BE198EF29EC9
:104BB0000001C8EC12F019BEF28EE0EF25F0EBD741
:104BC000D0EF3EF0196AF2BE198EF29EC8EC12F0D8
:104BD00019BEF28E6D6A140E6F6E696A6D86010ED3
:104BE0002A6EF6EF25F06DB601D0ECD72A2C0BD04B
:104BF0006DBA09D0686A696AA08AC00EF212110EF5
:104C0000696E020E2A6EDCEF3EF02150016E0EEF4F
:104C100026F0010E0201686F0001F7D701C069F2AA
:104C200002016A6B000187A103D002016A2B000117
:104C300002016B6B685304E0625302E1010E6B6F7B
:104C4000685304E1625302E0020E6B6F695304E0A3
:104C5000635302E1030E6B6F695304E1635302E097
:104C6000040E6B6F6A5308E0645306E1716B8A0EA1
:104C7000706F000108DF02016B5300E068C262F24E
:104C800069C263F26AC264F20001DEEF3EF0010124
:104C900098BF01D05AD083AA0ED0959A8C9A020E52
:104CA00002016B6F960E726F00019DEC1EF0020107
:104CB0006B2FF8D7010182BC0CD083A30AD03F0E22
:104CC000946E8B8C320E0201726F00019DEC1EF00F
:104CD000010183AD26D091A124D0020138510101F8
:104CE000F35D1FE308E1F2510201375DD8A002D065
:104CF000010117D00101959A8C8A020E02016B6F97
:104D0000960E726F00019DEC1EF002016B2FF8D71A
:104D1000959A8C9A320E726F00019DEC1EF0010183
:104D20009191959C8C8C82BC0CD083A50AD0320EBC
:104D30000201726F00019DEC1EF03F0E946E8B8C91
:104D40000101020E02015A6F01010001120001016E
:104D500098BF01D058D083AC0ED0959C8C9C020E8D
:104D600002016B6F960E726F00019DEC1EF0020146
:104D70006B2FF8D7010182BC0CD083A30AD03F0E61
:104D8000946E8B8C320E0201726F00019DEC1EF04E
:104D9000010183AD24D091A122D0F1510201385DEF
:104DA000D8B002D001011BD005E137510101F05DFF
:104DB00016E20201959C8C8C020E6B6F960E726F40
:104DC00000019DEC1EF002016B2FF8D7959C8C9C86
:104DD000320E726F00019DEC1EF001019191959AC7
:104DE0008C8A82BC0CD083A50AD0320E0201726F6D
:104DF00000019DEC1EF03F0E946E8B8C0101040EA1
:104E000002015A6F01010001120002016C510108F8
:104E1000D8A090D004E16B516808D8A08BD06CC2A8
:104E20004DF26BC24CF20101F75102016C5D0FE3D0
:104E300005E10101F65102016B5D09E30101F65143
:104E400002016B5F0101F75102016C5B0DD0680E2E
:104E5000D8800101F655006E010EF755036E005023
:104E600002016B2703506C236CC24BF26BC24AF2F7
:104E7000010183AB59D002014A510101F45D0201E5
:104E8000716F4B510101F5590201726F00084DE23B
:104E9000FF0A03E17151670848E243514B5D0BE3A0
:104EA00003E142514A5D07E342514A5D6D6F435150
:104EB0004B596E6F06D04A51425D6D6F4B5143594D
:104EC0006E6F680E4A25716F010E4B21726F435150
:104ED000725D11E303E14251715D0DE3680E4A25F5
:104EE000716F010E4B21726F4251715D6F6F4351B3
:104EF0007259706F0CD0680E4A25016E010E4B215D
:104F0000036E0150425D6F6F03504359706F7051D3
:104F10006E5D08E303E16D516F5D04E2680E4A27A0
:104F2000010E4B23010198A702010101919300C2D8
:104F300092F103D0000187990101000112000101E3
:104F400098BF01D016D0EDB101D013D082AE0BD0F6
:104F500091853F0E946E8B9EFA0E0201726F0001D6
:104F60009DEC1EF0010195988C88040E02015B6F88
:104F7000010100011200010198BF01D016D0EDB16E
:104F800001D013D083A80AD0918595988C98FA0EF9
:104F90000201726F00019DEC1EF001013F0E946E44
:104FA0008B8E020E02015B6F0101000112000201F3
:104FB000686B83A206D000016ADE0201416B658145
:104FC00006D065A104D0659100013CDC020183A0FC
:104FD00006D00001BCDE0201416B658306D065A3EB
:104FE00004D0659300012EDC02010101EDA102D085
:104FF00083A9C2D082A266D002014D51010826E3E6
:1050000003E14C51670822E301019951270818E296
:10501000050E02014C25696F000E4D216A6F0108D3
:10502000D8B002D001010CD006E169516708D8B0B0
:1050300002D0010105D0050E4C27000E4D2305D0EE
:10504000010E02014C27000E4D2302D04D6B4C6B1C
:105050004D51000809E2FF0A03E14C51670804E2E0
:10506000680E4C5F010E4D5B4DC26CF24CC26BF290
:105070000001CBDE71EC22F0030E0201416F65B539
:105080000BD0FA0E726F00019DEC1EF002016585D7
:105090000101996B16D002010101992B9951270842
:1050A00009E2280E996F0201726F00019DEC1EF05B
:1050B00007D00101280E0201726F00019DEC1EF065
:1050C000010104D0020165950101996B82A44FD0C2
:1050D00002014C5302E14D5318E001019A51270897
:1050E0000EE202014D5306E14C510508D8A002D052
:1050F000010105D0050E4C5F000E4D5B05D0010E81
:1051000002014C5F000E4D5B04D0010E4D6F670E27
:105110004C6F4DC26CF24CC26BF2000176DE71EC4A
:1051200022F0030E0201416F65B70BD0FA0E726FC9
:1051300000019DEC1EF00201658701019A6B16D0FB
:10514000020101019A2B9A51270809E2280E9A6F51
:105150000201726F00019DEC1EF007D00101280EC4
:105160000201726F00019DEC1EF0010104D00201EA
:10517000659701019A6B1ED082A406D00001DFDE84
:105180000201658709D00101020165A705D0659775
:1051900000014AEC24F0020182A205D00001EBDEFE
:1051A0000201658507D065A505D0659500014AEC2B
:1051B00024F00201020168C201F00001FCEF3EF0A0
:1051C0008E0E006E72C201F071C202F0036A0152CB
:1051D00009E102C001F0026A080E005E015202E11C
:1051E000006A08D0D89001BE04D00236013600060D
:1051F000F9D7019E120002017151D8B471D0006E2E
:105200007551D8B46DD0002604E3810E002668E203
:1052100004D07F0E005E64E363E072C279F27651DF
:10522000791B728F768F74517803F4CF7BF27351B0
:105230007703F4CF03F0F3CF7AF27803F3507B27B0
:10524000F4507A23000E032274517703F3507B2726
:10525000F4507A23000E026A03220222725178036C
:10526000F3507A27F4500322000E02227251770382
:10527000F3500326F4500222000E016A01227451F9
:105280007603F3507A27F4500322000E0222012203
:1052900073517603F3500326F4500222000E0122CC
:1052A00072517603F3500226F4500122002A01BE07
:1052B00005D07A370336023601360006000E7AAF83
:1052C0000AD0032A02220122015005E1025003E123
:1052D000035001E1002A79BF018E79AF019E04D00D
:1052E000006A016A026A036A000112000201715138
:1052F000D8B4A5D07D6F7551D8B4A1D07D5F05E33A
:105300007F0E7D27D8B09BD006D0810E7D5FD8A0C0
:1053100096D0D8B494D07DC200F0016A026A036AC4
:105320007C6B72C27BF27B8F73C27AF274C279F2A9
:10533000190E7D6F7851795F0DE2010E7A5F0AE2F6
:105340007B5F08E27C5F06E27C2B7B2B7A2B78511B
:10535000792728D077517A5F12E2010E7B5F0FE246
:105360007C5F0DE27C2B7B2B77517A277851792754
:1053700019E37A2B17E17B2B15E17C2B13D07651A7
:1053800080097B5F0EE2010E7C5F0BE27C2B765185
:1053900080097B2777517A27E9E37B2BE7E17C2B98
:1053A000E5D703807D2F01D00BD0D89079377A379D
:1053B0007B377C37D8900336023601367E37BAD732
:1053C0007EA106D0D8900132023203327E3302D061
:1053D000000635E07EBF1ED0D89079377A377B370C
:1053E0007C377851795F07E2010E7A5F04E27B5FD8
:1053F00002E27C5F1AE377517A5F05E2010E7B5F80
:1054000002E27C5F12E3765180097B5F03E2010ECA
:105410007C5F0BE3032A09E1022A07E1012A05E187
:10542000002A0DE001320232033272C27DF276515F
:105430007D1B7DAF02D0018E06D0019E04D0006A94
:10544000016A026A036A000112008E0E006E0201F8
:105450006F51005E70C202F071C201F0028E005204
:1054600009E0D890025202E1015204E00232013216
:10547000002EF7D770AF05D0011E021E012AD8B446
:10548000022A0001120002016F517019800B726F25
:105490006FAF02D06F1F6F2B70AF02D0701F702BD9
:1054A0007051016A6F5D03E26FC200F00CD0006AB8
:1054B000080E716F6F3700367051005CD8B0006E07
:1054C0000136712FF7D772AF02D0011E012A0001F9
:1054D000D8EF2BF0006A016A02016F51D89070B1C9
:1054E00000260032013270B300260032013270B55E
:1054F00000260032013270B700260032013270B946
:1055000000260032013270BB00260032013270BD2D
:1055100000260032013270BF002600320132000145
:10552000EAEF2BF08E0E006E6EC201F06DC202F03B
:10553000036A01AE05D0011E021E022A01E1012A02
:10554000015209E102C001F0026A080E005E015238
:1055500002E1006A0DD0D89001BE04D002360136B7
:105560000006F9D702016EAF02D0000101D0019E02
:105570000001F0EF2CF0000E016EC250C30B0110C1
:10558000C26E0400270E006E002EFED70000C282FD
:10559000C2B2FED7C4CF38F20201C3CF37F2010145
:1055A00083A107D0FF0ED88002013757030E38576A
:1055B0000101EDB120D083AF19D038C257F237C204
:1055C00056F2080E016EC250C30B0110C26E0400E9
:1055D000270E006E002EFED70000C282C2B2FED798
:1055E000C4CF38F20201C3CF37F203D00201576BA8
:1055F000566B15D00101080E016EC250C30B01108D
:10560000C26E0400270E006E002EFED70000C2827C
:10561000C2B2FED7C4CF57F20201C3CF56F2010186
:10562000F1510201385DD8A077D008E1375101016E
:10563000F05DD8A002D002016FD002013851010103
:10564000F35DD8B002D0020167D005E1F25102014A
:10565000375D62E20101F0510201375D006E010128
:10566000F15102013859036E00C071F2726F0001EE
:10567000A7DD00C06DF201C06EF202C06FF203C080
:1056800070F2F5C172F2F4C171F29ADD70C274F277
:105690006FC273F26EC272F26DC271F203C078F221
:1056A00002C077F201C076F200C075F2A4DD00C03E
:1056B0006DF201C06EF202C06FF203C070F2010120
:1056C000F051F25D006EF151F359036E00C071F2BA
:1056D0000201726F000174DD70C274F26FC273F266
:1056E0006EC272F26DC271F203C078F202C077F23C
:1056F00001C076F200C075F2F9DD03C072F202C09B
:1057000071F201C070F200C06FF29FDE02C043F27E
:1057100001C042F213D002010101F3510201385DD0
:105720000BE305E10101F2510201375D05E3F5C12B
:1057300043F2F4C142F202D0436B426B0201435187
:10574000000808E2FF0A03E14251680803E2010190
:10575000918B02D00101919B43C270F242C26FF261
:105760000201726B140E716F00014EEC22F001C049
:1057700069F202016951140DF350425D6A6F010E26
:105780006925036A070FE96E020E0320EA6EEFCF68
:105790006DF2036A6951070FE96E020E0320EA6E8B
:1057A000EF506D5D6E6F6F6F040E706F00016BD602
:1057B00001C06DF26AC274F2050E0201756F00013C
:1057C000F0EC20F001C06EF26DC26FF201C070F219
:1057D000000180D601C068F2036A02016951070F17
:1057E000E96E020E0320EA6EEF50036A006EE8BE17
:1057F000030642256D6F035043216E6F036A6851A3
:10580000E8BE03066D25016E6E51032201C042F20F
:1058100003C043F20101F651020142256B6F010101
:10582000F751020143216C6F6C51000809E2FF0A35
:1058300003E16B51680804E2680E6B5F010E6C5B5C
:105840006CC245F26BC244F243514B5D0FE303E17E
:105850004A51425D0BE242514A5D0101946F0201DF
:1058600043514B590101956F0AD002014A51425DE3
:105870000101946F02014B5143590101956FEDB144
:1058800001D039D1F9510201575DD8A01BD106E1F1
:105890000101F8510201565DD8A014D15751010100
:1058A000FB5DD8B002D002010DD108E102015651D2
:1058B0000101FA5DD8B002D0020104D1F851020111
:1058C000565D006E0101F95102015759036E00C087
:1058D00071F2726F000174DC00C06DF201C06EF2F3
:1058E00002C06FF203C070F2FDC172F2FCC171F22E
:1058F00067DC70C274F26FC273F26EC272F26DC274
:1059000071F203C078F202C077F201C076F200C0F3
:1059100075F271DC00C06DF201C06EF202C06FF270
:1059200003C070F20101F851FA5D006EF951FB59A4
:10593000036E00C071F20201726F000141DC70C29F
:1059400074F26FC273F26EC272F26DC271F203C072
:1059500078F202C077F201C076F200C075F2C6DCC0
:1059600003C072F202C071F201C070F200C06FF2A7
:105970006CDD02C047F201C046F202014753D8A4D1
:1059800092D046515908D8A08ED047C270F246C274
:105990006FF2726B0A0E716F00014EEC22F001C0C3
:1059A00069F2020169510A0DF350465D6A6F010EFA
:1059B0006925036A200FE96E020E0320EA6EEFCF1D
:1059C0006DF2036A6951200FE96E020E0320EA6E40
:1059D000EF506D5D6E6B6D6F6DBF6E070001A2D5F0
:1059E00000C06DF201C06EF202C06FF203C070F22F
:1059F0000201726B6AC271F20001E0EC28F070C221
:105A000074F26FC273F26EC272F26DC271F203C0B1
:105A100078F202C077F201C076F200C075F2FBECBA
:105A200028F000C06DF201C06EF202C06FF203C038
:105A300070F203C074F202C073F201C072F200C0CF
:105A400071F20201786B776B200E766F820E756FA4
:105A500000014CDC03C072F202C071F201C070F2AE
:105A600000C06FF2F2DC01C068F2036A0201695102
:105A7000200FE96E020E0320EA6EEF50036A006EFB
:105A8000E8BE030646256D6F035047216E6F036A1B
:105A90006851E8BE03066D25016E6E51032201C0F8
:105AA00046F203C047F20101FE51020146256B6F29
:105AB0000101FF51020147216C6F6CC249F26BC2B8
:105AC00048F218D00101F9510201575D0BE305E1DD
:105AD0000101F8510201565D05E3FDC147F2FCC129
:105AE00046F204D0FFC147F2FEC146F247C249F276
:105AF00046C248F201010001FEEF3EF0010197515C
:105B0000965D01E11BD096C197F1D89096351E0F96
:105B10000201686F01019651630802E3965307E1A1
:105B2000380ECA6EFF0ECB6E93968A8607D0200E73
:105B30000609CA6E020168C2CBFF01010001120012
:105B40000201686B4B51435D06E303E142514A5D3C
:105B500002E2020E686F43514B5D06E303E14A51D6
:105B6000425D02E2040E686F42514A5D696F435123
:105B70004B596A6F036E69516A531AE16951585D56
:105B800017E3010191A307D00201686B000122EC29
:105B900024F00CD00101020142514A5D08E1435159
:105BA0004B5D05E1686B000122EC24F0020105D099
:105BB0000101EDAF03D002016869010102016851E2
:105BC000FF0A000108E0FF0A0FE0020A38E0060AB7
:105BD000D8B468D099D00101925304E1000122ECBD
:105BE00024F00101000190D002015A51FB0F25E27F
:105BF000050F000186EF2EF022EC24F002011DD0EB
:105C00003F0E946E8B9C02015A6B17D0959C8C9C16
:105C1000010E02015A6F000171EC22F00FEC24F02A
:105C200002010BD0959A8C9A010E02015A6F000165
:105C300071EC22F00FEC24F00201000165D00201AA
:105C40005A51FB0F2DE2050F000198EF2EF00101D4
:105C500083A303D03F0E946E8B8C010E02015A6F0A
:105C60001FD047EC26F002011BD0959C8C8C020EB5
:105C700002015A6F15D001019183959A8C9A010EF9
:105C800002015A6F0101922F05D000010FEC24F0A0
:105C900022EC24F0000171EC22F00FEC24F0020160
:105CA000000132D002015A51FB0F2DE2050F000115
:105CB000AAEF2EF0010183A303D03F0E946E8B8CCC
:105CC000010E02015A6F1FD0A7EC26F002011BD073
:105CD00001019183959C8C9C010E02015A6F010178
:105CE000922F05D000010FEC24F022EC24F00001EB
:105CF00071EC22F00FEC24F0020105D0959A8C8A09
:105D0000040E02015A6F00019BEF3FF0E824F76A8E
:105D1000F736270FF66E5D0EF7220A00F550FA6E81
:105D20000800F550F96EF85B005C0C5C3A5C245C92
:105D3000E824F76AF7364B0FF66E5D0EF7220A007D
:105D4000F550FA6E0800F550F96E4E5C625C6A5CC4
:105D5000A05C765CE824F76AF7366F0FF66E5D0E8E
:105D6000F7220A00F550FA6E0800F550F96EB45C9F
:105D7000C85CD05C065DFC5C0201686B5151475DFC
:105D800006E303E14651505D02E2040E686F47519D
:105D9000515D06E303E15051465D02E2020E686F79
:105DA0004651505D696F475151596A6F036E695191
:105DB0006A531AE16951595D17E3010191A507D0B2
:105DC0000201686B00014AEC24F00CD001010201D1
:105DD0004651505D08E14751515D05E1686B000196
:105DE0004AEC24F0020105D00101EDAF03D002011D
:105DF00068690101FD510201475D0AE308E146516E
:105E00000101FC5DD8A002D0020102D00201686B42
:105E10006851FF0A000107E0FF0A0EE0020A10E0E5
:105E2000060A11E012D00101935304E100014AEC8B
:105E300024F0879B000109D0879B4AEC24F005D011
:105E4000BBEC27F002D09FEC27F0A2EF3FF0010E51
:105E50000201616F9B0E606FEA0EF66E360EF76EF2
:105E6000080E706F0001DCEC20F068C26EF2180EB4
:105E700002016F6F000106EC21F0010EEA6E9B0E2D
:105E8000E96E64EC21F00C0E0201696FFA0E726F7C
:105E900000019DEC1EF00201692FF8D70101ED977A
:105EA000ED99ED9BED9D0001120084B101D0FDD76D
:105EB0008651862BA30FE96E040EEA6ED8B0EA2A4B
:105EC000EFCF69F28551865D08E3196AF2BE198E3B
:105ED000F29E14EC18F019BEF28E020169C201F0B4
:105EE000000187EF2FF00101EE6BEE510F080AE37E
:105EF000036AEE51DC0FE96E010E0320EA6EEF6AD1
:105F0000EE2BF3D7EE6B989B00011200CED701C0A9
:105F100068F20101EE51EE2B036ADC0FE96E010E0F
:105F20000320EA6E02016851600806E268517A08AF
:105F300003E36851DF0B01D06851EF6E0101EE51B0
:105F40000F080AE20001CFDF0201716BE30E706FF0
:105F5000000143EC25F00101010EEE5D036ADC0F48
:105F6000E96E010E0320EA6EEF500A080BE0010E05
:105F7000EE5D036ADC0FE96E010E0320EA6EEF505E
:105F80000D0801E1988BEE51030816E2040EEE5D58
:105F9000036ADC0FE96E010E0320EA6EEF504D0834
:105FA0000BE1EE51EE2B036ADC0FE96E010E0320CC
:105FB000EA6E0A0EEF6E988B0001E0EF3FF06CC2C4
:105FC0006EF26BC26DF26EC203F002016DC2E9FFA8
:105FD0006EC2EAFFEF5206E06D2BD8B46E2B0001C3
:105FE000F2D702016B516D5D006E6C516E59036EFC
:105FF00000C001F000014AEF37F002016BC2E9FF77
:106000006CC2EAFFEFCF6FF26EC203F06DC2E9FF20
:106010006EC2EAFFEF506F5D15E16CC203F06BC218
:10602000E9FF03C0EAFFEF5203E1000E016E1FD04B
:106030006CC203F06B516B2BD8B46C2B6D2BD8B4A6
:106040006E2BDCD76CC203F06BC2E9FF6CC2EAFFB7
:10605000EFCF6FF26EC203F06DC2E9FF6EC2EAFFCE
:10606000EF506F5D02E2FF0E01D0010E016E0001E4
:1060700063EF37F002017291729370C2E9FF71C24F
:10608000EAFFEFCF73F272B11BD00101EE510201B2
:10609000735D14E2036A7351DC0FE96E010E032095
:1060A000EA6EEFCF74F27451200805E074510908CC
:1060B00002E0728102D07283732B01D07281E3D728
:1060C00070C2E9FF71C2EAFF73C2EFFF000E72B344
:1060D000010E016E0001120002017491749370C2EE
:1060E000E9FF71C2EAFFEFCF75F2786B776B74B19D
:1060F00037D0010E0101EE5D0201755D2FE2036AEA
:106100007551DC0FE96E010E0320EA6EEFCF76F2D7
:1061100076512F0803E27651390802E274811DD0CE
:106120007483196AF2BE198EF29E78C29CF277C20D
:106130009BF29E6B0A0E9D6F000132EC12F019BEAD
:10614000F28E02C078F201C077F2300E0201765F63
:1061500076517727000E7823752B01D07481C7D72D
:1061600070C2E9FF71C2EAFF75C2EFFF74A309D0E4
:1061700072C2E9FF73C2EAFF78C2ECFFED5277C248
:10618000EFFF000E74B3010E016E00011200800ECD
:10619000D8A202D00201741B0201796B7A6B70C223
:1061A00078F27451781B6F51D8B4DFD0776F006EDE
:1061B0007351D8B4E3D0775FD8B483D03EE374C2D0
:1061C0007DF27D8F75C27CF276C27BF27A6BD890BD
:1061D0007D337C337B337A33772FF8D778AF03D096
:1061E0007981E0D0799177917989020EEA6E720E09
:1061F000E96EEBD0799978BF0AD077A113D07D33BF
:106200007C337B337A33002AD8B4C7D00BD07DBF20
:106210000CD0D8907A377B377C377D370006D8B4DE
:10622000BCD0F5D7798D6DD0799D70C278F270AF02
:1062300002D07D8FABD07D9FA9D073C277F273C29D
:1062400000F06F51775F70C27DF27D8F71C27CF27A
:1062500072C27BF27A6BD8907D337C337B337A3396
:10626000772FF8D778AF03D079839CD07993779143
:10627000798B020EEA6E760EE96EA7D0799B78BF15
:106280000AD077A113D07D337C337B337A33002A55
:10629000D8B483D00BD07DBF0CD0D8907A377B3761
:1062A0007C377D370006D8B478D0F5D7798F29D0E0
:1062B000799F74C278F274AF02D07D8F67D07D9FD2
:1062C00065D074C27DF27D8F75C27CF276C27BF29E
:1062D00078AF04D07D9F798565D079957A6B779179
:1062E000020EEA6E720EE96E70D078BF1CD070C2DA
:1062F00078F277A106D07D337C337B337A33002A62
:106300004CE07AAF0BD07B2B09E17C2B07E17D2B96
:1063100005E17D337C337B33002A3FE079BD84D7B0
:1063200079BFC6D71CD0800E7D1B7DAF04D03AD07C
:1063300074C278F20AD070C278F27D5306E17C53C1
:1063400004E17B5302E1006A21D07DBF08D0D890E0
:106350007A377B377C377D37002EF7D71ED078AF62
:1063600002D07D8F13D07D9F11D073C200F074C214
:106370007DF275C27CF276C27BF208D06FC200F06B
:1063800070C27DF271C27CF272C27BF27DC201F0FA
:106390007CC202F07BC203F034D0006A016A026A58
:1063A000036A2FD07A6B7B1F7C1F7D1F7A1F7A2B8D
:1063B00005E17B2B03E17C2B01E17D2B79B112D729
:1063C00079B354D779B589D7B3D7EF507B2705E395
:1063D0007C2B03E17D2BD8B47781ED52EF507C27E5
:1063E00003E37D2BD8B47781ED52EF50EFBE01D09F
:1063F000800A7D27D8B0778179B9FCD679BB3ED7A2
:1064000074D7000112000201515101086AE303E14F
:106410005051680866E351C253F250C252F2010172
:10642000FF510201515D0FE305E10101FE5102013F
:10643000505D09E30101FE510201505F0101FF516E
:106440000201515B47D0FFC172F2FEC171F200013F
:10645000E0EC28F0D8820201726B716B340E706F21
:10646000870E6F6F03C076F202C075F201C074F23E
:1064700000C073F200018BDE00C06BF201C06CF251
:1064800002C06DF203C06EF251C272F250C271F2DC
:10649000E0EC28F0D89203C072F202C071F201C0A1
:1064A00070F200C06FF26EC276F26DC275F26CC20D
:1064B00074F26BC273F26BDE03C072F202C071F24F
:1064C00001C070F200C06FF225EC2AF002C051F258
:1064D00001C050F20001878B0101919501C293F137
:1064E00002D00001879B000E000187BB010E020154
:1064F0006B6F010E616F9B0E606F410E796F000133
:10650000BCEC20F03A0E0201796F0001BCEC20F0E7
:106510006BC26EF2180E02016F6F000106EC21F0E3
:10652000E00EF66E360EF76E030E0201706F00017C
:10653000DCEC20F0100EE96E51C271F250C270F224
:10654000F0EC21F00A0E0201796F0001BCEC20F0A2
:106550000D0E0201796F0001BCEC20F0010E02016A
:10656000716F9B0E706F000143EC25F01200020169
:10657000716B9F0E706F000143EC25F00201716B8F
:10658000E30E706F000143EC25F033EF3BF00201A6
:106590006FBF12D00F0E006E6E3900160A0E005C2F
:1065A00003E2300E002602D06F51002600C079F2BF
:1065B0000001BCEC20F002010F0E6E170A0E6E5D9A
:1065C00002E2300E02D06F9F6F516E276EC279F2D9
:1065D0000001BCEC20F0120002016C6B716BE00E4C
:1065E000706F000143EC25F002016B6B6B517F086B
:1065F00046E3F2CF6EF2F29E6BC2A9FFA69CA69E66
:10660000A680A8506EBFF28E6D6F010E616F9B0E5B
:10661000606F6BC26EF2370E6F6F0001B8DF3A0E1B
:106620000201796F0001BCEC20F06DC26EF2370EF2
:1066300002016F6F0001ABDF200E0201796F0001D4
:10664000BCEC20F0010E0201716F9B0E706F000117
:1066500043EC25F00A0E0201726F00019DEC1EF062
:1066600002016C2B6C51070808E26C6B716BE00E39
:10667000706F000143EC25F002016B2BB7D7716BF3
:10668000E30E706F000143EC25F04DEF3AF002018C
:1066900071877191719371956BC2E9FF6CC2EAFFCA
:1066A000EFCF72F2756B746B036A7251DC0FE96E97
:1066B000010E0320EA6EEFCF73F273512F0803E24D
:1066C000735139080CE27351400803E273514608D4
:1066D00006E27351600829E27351660826E373519C
:1066E0002F0803E27351390811E27351600806E282
:1066F00073517A0803E37351DF0B01D07351736F49
:10670000410E735D0A0F746F756B04D0300E735DAC
:10671000746F756B743775377437753774377537B1
:1067200074377537F00E741701D07197010E72250A
:10673000036ADC0FE96E010E0320EA6EEFCF73F2FD
:1067400073512F0803E2735139080CE2735140086A
:1067500003E27351460806E27351600829E273515F
:10676000660826E373512F0803E27351390811E2DA
:106770007351600806E273517A0803E37351DF0B2B
:1067800001D07351736F410E735D0A0F766F776B93
:1067900004D0300E735D766F776B6DC2E9FF6EC209
:1067A000EAFF76517425EF6E77517521EC6E01D0BA
:1067B0007197020E7225036ADC0FE96E010E032049
:1067C000EA6EEFCF73F273513A0801E07197030E4E
:1067D0007225036ADC0FE96E010E0320EA6EEFCF2B
:1067E00073F273512F0803E2735139080CE27351AD
:1067F000400803E27351460806E27351600829E23B
:106800007351660826E373512F0803E27351390868
:1068100011E27351600806E273517A0803E3735181
:10682000DF0B01D07351736F410E735D0A0F746FEC
:10683000756B04D0300E735D746F756B743775377C
:10684000743775377437753774377537F00E7417BA
:1068500001D07197040E7225036ADC0FE96E010EF8
:106860000320EA6EEFCF73F273512F0803E27351E6
:1068700039080CE27351400803E27351460806E2FE
:106880007351600829E27351660826E373512F089B
:1068900003E27351390811E27351600806E2735143
:1068A0007A0803E37351DF0B01D07351736F410E0C
:1068B000735D0A0F766F776B04D0300E735D766F61
:1068C000776B6FC2E9FF70C2EAFF76517425EF6EF5
:1068D00077517521EC6E01D07197000E71B7010EE2
:1068E000016E000168EF3AF0010E0201616F9B0E2C
:1068F000606F120EF66E360EF76E090E706F0001A5
:10690000DCEC20F0100EE96EF1C171F2F0C170F212
:10691000F0EC21F0090E0201796F0001BCEC20F0CF
:10692000010E0201716F9B0E706F000143EC25F0A8
:10693000010E0201616F9B0E606F200EF66E360E27
:10694000F76E070E706F0001DCEC20F0100EE96EA0
:10695000F3C171F2F2C170F2F0EC21F00A0E020103
:10696000796F0001BCEC20F00D0E0201796F00017F
:10697000BCEC20F0010E0201716F9B0E706F0001E4
:1069800043EC25F0010E0201616F9B0E606F2E0E2D
:10699000F66E360EF76E070E706F0001DCEC20F01D
:1069A000100EE96EF5C171F2F4C170F2F0EC21F055
:1069B000090E0201796F0001BCEC20F0010E02010A
:1069C000716F9B0E706F000143EC25F0010E020108
:1069D000616F9B0E606F3A0EF66E360EF76E070E05
:1069E000706F0001DCEC20F0100EE96EF7C171F25F
:1069F000F6C170F2F0EC21F00A0E0201796F00018D
:106A0000BCEC20F00D0E0201796F0001BCEC20F00F
:106A1000010E0201716F9B0E706F000143EC25F0B7
:106A20000101EDB101D09DD0010E0201616F9B0EFD
:106A3000606F480EF66E360EF76E070E706F00012F
:106A4000DCEC20F0100EE96EF9C171F2F8C170F2C1
:106A5000F0EC21F0090E0201796F0001BCEC20F08E
:106A6000010E0201716F9B0E706F000143EC25F067
:106A7000010E0201616F9B0E606F540EF66E360EB2
:106A8000F76E070E706F0001DCEC20F0100EE96E5F
:106A9000FBC171F2FAC170F2F0EC21F00A0E0201B2
:106AA000796F0001BCEC20F00D0E0201796F00013E
:106AB000BCEC20F0010E0201716F9B0E706F0001A3
:106AC00043EC25F0010E0201616F9B0E606F620EB8
:106AD000F66E360EF76E070E706F0001DCEC20F0DC
:106AE000100EE96EFDC171F2FCC170F2F0EC21F004
:106AF000090E0201796F0001BCEC20F0010E0201C9
:106B0000716F9B0E706F000143EC25F0010E0201C6
:106B1000616F9B0E606F6E0EF66E360EF76E070E8F
:106B2000706F0001DCEC20F0100EE96EFFC171F215
:106B3000FEC170F2F0EC21F00A0E0201796F000143
:106B4000BCEC20F00D0E0201796F0001BCEC20F0CE
:106B5000010E0201716F9B0E706F000143EC25F076
:106B6000010100011200020E02016C6F036A6C51F8
:106B7000DC0FE96E010E0320EA6EEF50530A0001AC
:106B800012E0160A49E00A0AD8B480D00E0AD8B436
:106B9000ACD0130AD8B4E0D0060AD8B401D1030AA5
:106BA000D8B422D152D102016C2B020E716F6C0E3F
:106BB000706F00013AEC30F0020E0201716F6C0E42
:106BC000706F020E736F6E0E726F00016CEC30F01E
:106BD00002016D9101B06D816DA111D06F5103085B
:106BE00002E26F6B6E6B6B5305E16FC2F1F16EC227
:106BF000F0F104D06FC2F9F16EC2F8F10BD06B5313
:106C000005E138C2F1F137C2F0F104D057C2F9F111
:106C100056C2F8F1000119D102016C2B020E716FFE
:106C20006C0E706F00013AEC30F0020E0201716FD1
:106C30006C0E706F020E736F6E0E726F00016CEC53
:106C400030F002016D9101B06D816DA112D06F51D4
:106C5000030803E2030E6F6F6E696B5305E16FC2A9
:106C6000F3F16EC2F2F104D06FC2FBF16EC2FAF121
:106C70000BD06B5305E138C2F3F137C2F2F104D007
:106C800057C2FBF156C2FAF10001DFD002016C2BB2
:106C9000020E716F6C0E706F00013AEC30F0020E54
:106CA0000201716F6C0E706F020E736F6E0E726F59
:106CB00000016CEC30F002016B530CE16F510108E4
:106CC00008E303E16E51680804E36FC2F7F16EC296
:106CD000F6F109D06F5307E16E51B40804E36FC2B7
:106CE000FFF16EC2FEF10001B0D002016C2B020E6A
:106CF000716F6C0E706F00013AEC30F0020E020101
:106D0000716F6C0E706F020E736F6E0E726F0001FA
:106D10006CEC30F002016B5310E16E5302E16F53E3
:106D20000BE06F51010808E303E16E51F40804E33E
:106D30006FC2F5F16EC2F4F10DD06E5302E16F53E4
:106D400009E06F5307E16E51B40804E36FC2FDF12F
:106D50006EC2FCF1000179D002016C2B020E716F42
:106D60006C0E706F00013AEC30F0020E0201716F90
:106D70006C0E706F020E736F6E0E726F00016CEC12
:106D800030F002016F530AE16E51640807E36B5360
:106D900003E16EC258F202D06EC259F2000155D022
:106DA00002016C2B020E716F6C0E706F00013AECD9
:106DB00030F0020E0201716F6C0E706F020E736F75
:106DC0006E0E726F00016CEC30F002016F530AE13D
:106DD0006E510A0807E36B5303E16EC200F202D062
:106DE0006EC201F2000131D002016C2B020E716FF4
:106DF0006C0E706F00013AEC30F0020E0201716F00
:106E00006C0E706F020E736F6E0E726F00016CEC81
:106E100030F002016F51010817E303E16E512C08B5
:106E200013E36B5309E16FC203F26EC202F203C2B5
:106E300032F202C231F208D06FC205F26EC204F221
:106E400005C234F204C233F200014EDD010E02012C
:106E5000616F9B0E606F0A0E796F0001BCEC20F031
:106E60000D0E0201796F0001BCEC20F0120002014E
:106E7000686B0101856B84AB3FD0000187A302D012
:106E800001013AD0010E02016C6FDC0E6B6F000144
:106E9000DFEF2FF001C06AF202016A5309E0010E30
:106EA0006A5D036ADC0FE96E010E0320EA6EEF6A89
:106EB000010E6C6FDC0E6B6F020E6E6F290E6D6F24
:106EC0000001FDEF2FF001C069F2020169530BE1EF
:106ED000000187830201716BE30E706F000143ECC8
:106EE00025F007D00201716BE80E706F000143ECD2
:106EF00025F033EF3BF00101DC51430A000131E0A2
:106F0000010AD8B48BD1100AD8B4DBD11E0AD8B488
:106F1000DBD1190AD8B4DBD1110AD8B4DBD1170AF6
:106F2000D8B4DBD1120AD8B4DDD1040AD8B4DDD18B
:106F3000080AD8B4DDD1030AD8B4F9D1190AD8B4F3
:106F400010D20F0AD8B444D2170AD8B449D2070ACB
:106F5000D8B449D21C0AD8B449D2120AD8B469D2DA
:106F60007BD30201682B036A6851DC0FE96E010EC6
:106F70000320EA6EEF50320A00010AE0770AD8B423
:106F800078D0070AD8B4A1D0040AD8B4CFD0F3D0AF
:106F9000010191B739D0010E0201616F9B0E606F44
:106FA0002B0E796F0001BCEC20F0300E0201796FDE
:106FB0000001BCEC20F00B0EE96E45C26CF244C23D
:106FC0006BF276EC21F02B0E0201796F0001BCEC24
:106FD00020F0300E0201796F0001BCEC20F00B0EA6
:106FE000E96E49C26CF248C26BF276EC21F00D0EEC
:106FF0000201796F0001BCEC20F00A0E0201796FEA
:107000000001BCEC20F034D0010E0201616F9B0E38
:10701000606F7C0EF66E360EF76E030E706F000119
:10702000DCEC20F00B0EE96E45C26CF244C26BF250
:1070300076EC21F0860EF66E360EF76E040E020127
:10704000706F0001DCEC20F00B0EE96E49C26CF2AF
:1070500048C26BF276EC21F00D0E0201796F00014F
:10706000BCEC20F00A0E0201796F0001BCEC20F0AC
:10707000CCD0000E010191BB010E02016B6F010E1D
:10708000616F9B0E606F2B0E796F0001BCEC20F0DE
:107090006BC26EF2180E02016F6F000106EC21F058
:1070A0000A0EE96E45C271F244C270F2F0EC21F0B2
:1070B0000D0E0201796F0001BCEC20F00A0E0201F6
:1070C000796F0001BCEC20F0A0D0010E0201616FCD
:1070D0009B0E606F940EF66E360EF76E080E706F94
:1070E0000001DCEC20F0100EE96E38C271F237C2FC
:1070F00070F2F0EC21F0200E0201796F0001BCEC7F
:1071000020F0100EE96E57C271F256C270F2F0EC28
:1071100021F00A0E0201796F0001BCEC20F00D0E87
:107120000201796F0001BCEC20F06FD0010E02016A
:10713000616F9B0E606F2B0E796F0001BCEC20F02D
:10714000300E0201796F0001BCEC20F0100EE96EE8
:1071500045C271F244C270F2F0EC21F00A0E020155
:10716000796F0001BCEC20F00D0E0201796F000177
:10717000BCEC20F04AD0010191B725D0010E0201EC
:10718000616F9B0E606F2B0E796F0001BCEC20F0DD
:10719000300E0201796F0001BCEC20F00A0EE96E9E
:1071A00045C271F244C270F2F0EC21F00D0E020102
:1071B000796F0001BCEC20F00A0E0201796F00012A
:1071C000BCEC20F022D0010E0201616F9B0E606FBB
:1071D000A60EF66E360EF76E030E706F0001DCEC35
:1071E00020F00A0EE96E45C271F244C270F2F0EC72
:1071F00021F00D0E0201796F0001BCEC20F00A0EA7
:107200000201796F0001BCEC20F0010E0201716FE8
:107210009B0E706F000143EC25F025D2010191B760
:1072200025D0010E0201616F9B0E606F2B0E796FEE
:107230000001BCEC20F0300E0201796F0001BCECC3
:1072400020F00A0EE96E49C271F248C270F2F0EC09
:1072500021F00D0E0201796F0001BCEC20F00A0E46
:107260000201796F0001BCEC20F022D0010E020176
:10727000616F9B0E606FB40EF66E360EF76E030EE6
:10728000706F0001DCEC20F00A0EE96E49C271F269
:1072900048C270F2F0EC21F00D0E0201796F00018E
:1072A000BCEC20F00A0E0201796F0001BCEC20F06A
:1072B000010E0201716F9B0E706F000143EC25F00F
:1072C000D2D1A7EC26F0CFD147EC26F0CCD1BBEC45
:1072D00027F0C9D19FEC27F0C6D14AEC24F022EC6C
:1072E00024F0C1D122EC24F0BED14AEC24F0BBD171
:1072F0000201682B020E716F680E706F00013AEC8C
:1073000030F0020E0201716F680E706F020E736F23
:10731000540E726F00016CEC30F0015207E055C260
:107320006CF254C26BF205EC27F087899CD1020104
:10733000682B020E716F680E706F00013AEC30F02E
:10734000020E0201716F680E706F020E736F500EA5
:10735000726F00016CEC30F0015202E003EC32F08D
:1073600082D10201682B020E716F680E706F0001EE
:107370003AEC30F0020E0201716F680E706F020E6F
:10738000736F540E726F00016CEC30F0015201E12A
:107390001ED055C26CF254C26BF205EC27F08789FF
:1073A0000201682B020E716F680E706F00013AECDB
:1073B00030F0020E0201716F680E706F020E736F73
:1073C000500E726F00016CEC30F003EC32F04BD1D8
:1073D000010198A702D0989701D09887000143D166
:1073E0004FEC25F040D1B7EF32F03DD10201682BD0
:1073F000036A6851DC0FE96E010E0320EA6EEF505C
:10740000300A000103E0010A09E013D0010198935A
:10741000918F988102015F6B00010BD0010198836D
:10742000919F9891050E02015F6F0101ED97ED9B11
:1074300000010201682B036A6851DC0FE96E010E3E
:107440000320EA6EEF50570A000116E0130A20E00D
:107450000D0A21E0060A23E01D0AD8B48FD0010AE4
:10746000D8B498D0120AD8B4A4D0040AD8B4A7D0FB
:10747000070AD8B4ABD0DFD044EC1CF0010E0201F7
:10748000716F210E706F000143EC25F0ECD0DBD062
:1074900010EC1DF0D8D0ECEF32F0E5D0D4D00201E2
:1074A000682B020E716F680E706F00013AEC30F0BD
:1074B000020E02016C6F680E6B6F020E6E6F690E2A
:1074C0006D6F020E706F6A0E6F6F000147EF33F041
:1074D00001524CE0020169517D0846E3010E616FE3
:1074E0009B0E606FC20EF66E360EF76E070E706F53
:1074F0000001DCEC20F069C26EF2370E02016F6F02
:107500000001C7EC32F03A0E0201796F0001BCECC9
:1075100020F06AC26EF2370E02016F6F0001C7ECF5
:1075200032F0D00EF66E360EF76E050E0201706F59
:107530000001DCEC20F0F250006EF29E69C2A9FF5F
:107540006AC2A8FFA69CA69EA6840F01550EA76E30
:10755000AA0EA76EA682A6B2FED7A6940050F2127B
:10756000000135EC1CF0020107D000010A0E0101F8
:107570009B6F0D0E9C6F9D6B000165D043EC1DF061
:10758000010E0201716F110E706F000143EC25F0C6
:107590006AD059D074EC34F0010E0201616F9B0E79
:1075A000606FD60EF66E360EF76E0001CCEC20F052
:1075B0004AD002016B6B0001B3EC35F044D0010EF0
:1075C00002016B6F0001B3EC35F03DD00201682B76
:1075D000020E716F680E706F00013AEC30F0020E0F
:1075E0000201716F680E706F020E736F690E726F19
:1075F00000016CEC30F001521BE0020169513208CD
:1076000018E36C6B69C26BF2196AF2BE198EF29EB6
:107610006CC29CF269C29BF29E6B640E9D6F00016E
:1076200032EC12F019BEF28E02C036F201C035F211
:107630000201000108D00201716BE00E706F0001C1
:1076400043EC25F010D0010E0201716F9B0E706F9C
:10765000000143EC25F007D00201716BE30E706F5F
:10766000000143EC25F0E6EF3FF0F86AD09E078E6C
:10767000230E006E010E016E020EE96E000EEA6E20
:10768000EE6A002EFDD7012EFBD7DA0E006E040E37
:10769000016E260EE96E000EEA6EEE6A002EFDD730
:1076A000012EFBD7DD0E006E030E016E230EE96E78
:1076B000050EEA6EEE6A002EFDD7012EFBD7EA6AB0
:1076C000E96A0201616B606BC150C00B0F09C16EAA
:1076D000070EB46E1A6A1B6A266A040E276E100E15
:1076E000286E260E296E520E00018A6F430E8B6F94
:1076F000490E8C6F2D0E8D6F550E8E6F530E8F6F42
:10770000420E906F200E916F620E926F790E936F02
:10771000200E946F450E956F410E966F340E976F45
:10772000540E986F580E996F0D0E9A6F0A0E9B6F3C
:107730003F0E9C6F3E0E9D6F9E6B4C0E9F6F690EB1
:10774000A06F730EA16F740EA26F200EA36F6F0E49
:10775000A46F660EA56F200EA66F630EA76F6F0E47
:10776000A86F6D0EA96FAA6F610EAB6F6E0EAC6F36
:10777000640EAD6F730EAE6F3A0EAF6F0D0EB06F3D
:107780000A0EB16FB26B430EB36F200EB46F430E8F
:10779000B56F320EB66F200EB76F430EB86F420E44
:1077A000B96F0A0EBA6F0D0EBB6FBC6B4D0EBD6F7D
:1077B000780EBE6FBF6FC06F200EC16FC26F570EC5
:1077C000C36F780EC46FC56FC66F200EC76F790E7A
:1077D000C86FC96FCA6F0A0ECB6F0D0ECC6FCD6B21
:1077E000520ECE6F200ECF6F4C0ED06F200ED16F89
:1077F000550ED26F200ED36F440ED46F0A0ED56F84
:107800000D0ED66FD76B530ED86F200ED96F410E69
:10781000DA6F200EDB6F450EDC6F0A0EDD6F0D0E8A
:10782000DE6FDF6B0A0EE06F0D0EE16FE26B0A0E8A
:10783000E36F0D0EE46F3F0EE56F3E0EE66FE76BF4
:107840000A0EE86F0D0EE96F500EEA6F610EEB6FD6
:10785000730EEC6FED6F770EEE6F6F0EEF6F720EB3
:10786000F06F640EF16F3A0EF26FF36B0D0EF46F62
:10787000F56B540EF66F720EF76F610EF86F630EB4
:10788000F96F650EFA6F200EFB6F4F0EFC6F4E0EF8
:10789000FD6F0D0EFE6F0A0EFF6F3F0E0101006FB0
:1078A0003E0E016F026B540E036F720E046F610E79
:1078B000056F630E066F650E076F200E086F4F0E83
:1078C000096F660E0A6F0B6F0D0E0C6F0A0E0D6FAF
:1078D0003F0E0E6F3E0E0F6F106B520E116F650E46
:1078E000126F610E136F640E146F200E156F450E2C
:1078F000166F176F500E186F520E196F4F0E1A6FCA
:107900004D0E1B6F0A0E1C6F0D0E1D6F3F0E1E6F6E
:107910003E0E1F6F206B450E216F226F500E236F9E
:10792000520E246F4F0E256F4D0E266F200E276FBF
:10793000530E286F610E296F760E2A6F650E2B6F1E
:10794000640E2C6F0A0E2D6F0D0E2E6F3F0E2F6FD3
:107950003E0E306F316B0A0E326F4D0E336F4F0E8D
:10796000346F440E356F450E366F200E376F410E63
:10797000386F420E396F530E3A6F4F0E3B6F4C0EFD
:107980003C6F550E3D6F540E3E6F450E3F6F200EFF
:10799000406F4F0E416F4E0E426F436B0A0E446FA5
:1079A000440E456F650E466F660E476F610E486F59
:1079B000750E496F6C0E4A6F740E4B6F200E4C6F34
:1079C000630E4D6F6F0E4E6F6E0E4F6F660E506FE3
:1079D000690E516F670E526F210E536F546B0A0E72
:1079E000556F200E566F576F550E586F530E596FC7
:1079F000420E5A6F200E5B6F440E5C6F490E5D6F36
:107A0000530E5E6F410E5F6F420E606F4C0E616FE2
:107A1000450E626F440E636F646B0A0E656F570EFE
:107A2000666F540E676F440E686F470E696F3A0EAB
:107A30006A6F200E6B6F530E6C6F540E6D6F4F0E8E
:107A40006E6F500E6F6F200E706F410E716F5A0E79
:107A5000726F736B0A0E746F570E756F540E766FDC
:107A6000440E776F470E786F3A0E796F200E7A6F5B
:107A7000530E7B6F540E7C6F4F0E7D6F500E7E6FDA
:107A8000200E7F6F450E806F4C0E816F826B919739
:107A900000018799879B0101918D918F9881996B46
:107AA0009A6BFA0E976F9199ED9F886B896B8A6B31
:107AB0008B6B0001879D879F879375EF1EF00101F7
:107AC000906B000187975AEF1FF0010E0201686F5B
:107AD00000019DEC1FF0020E0201686F00019DEC99
